{
  "_format": "hh-sol-artifact-1",
  "contractName": "RewardERC1155",
  "sourceName": "contracts/RewardERC1155.sol",
  "abi": [
    {
      "inputs": [],
      "stateMutability": "nonpayable",
      "type": "constructor"
    },
    {
      "anonymous": false,
      "inputs": [
        {
          "indexed": true,
          "internalType": "address",
          "name": "account",
          "type": "address"
        },
        {
          "indexed": true,
          "internalType": "address",
          "name": "operator",
          "type": "address"
        },
        {
          "indexed": false,
          "internalType": "bool",
          "name": "approved",
          "type": "bool"
        }
      ],
      "name": "ApprovalForAll",
      "type": "event"
    },
    {
      "anonymous": false,
      "inputs": [
        {
          "indexed": true,
          "internalType": "address",
          "name": "operator",
          "type": "address"
        },
        {
          "indexed": true,
          "internalType": "address",
          "name": "from",
          "type": "address"
        },
        {
          "indexed": true,
          "internalType": "address",
          "name": "to",
          "type": "address"
        },
        {
          "indexed": false,
          "internalType": "uint256[]",
          "name": "ids",
          "type": "uint256[]"
        },
        {
          "indexed": false,
          "internalType": "uint256[]",
          "name": "values",
          "type": "uint256[]"
        }
      ],
      "name": "TransferBatch",
      "type": "event"
    },
    {
      "anonymous": false,
      "inputs": [
        {
          "indexed": true,
          "internalType": "address",
          "name": "operator",
          "type": "address"
        },
        {
          "indexed": true,
          "internalType": "address",
          "name": "from",
          "type": "address"
        },
        {
          "indexed": true,
          "internalType": "address",
          "name": "to",
          "type": "address"
        },
        {
          "indexed": false,
          "internalType": "uint256",
          "name": "id",
          "type": "uint256"
        },
        {
          "indexed": false,
          "internalType": "uint256",
          "name": "value",
          "type": "uint256"
        }
      ],
      "name": "TransferSingle",
      "type": "event"
    },
    {
      "anonymous": false,
      "inputs": [
        {
          "indexed": false,
          "internalType": "string",
          "name": "value",
          "type": "string"
        },
        {
          "indexed": true,
          "internalType": "uint256",
          "name": "id",
          "type": "uint256"
        }
      ],
      "name": "URI",
      "type": "event"
    },
    {
      "inputs": [
        {
          "internalType": "address",
          "name": "account",
          "type": "address"
        },
        {
          "internalType": "uint256",
          "name": "id",
          "type": "uint256"
        }
      ],
      "name": "balanceOf",
      "outputs": [
        {
          "internalType": "uint256",
          "name": "",
          "type": "uint256"
        }
      ],
      "stateMutability": "view",
      "type": "function"
    },
    {
      "inputs": [
        {
          "internalType": "address[]",
          "name": "accounts",
          "type": "address[]"
        },
        {
          "internalType": "uint256[]",
          "name": "ids",
          "type": "uint256[]"
        }
      ],
      "name": "balanceOfBatch",
      "outputs": [
        {
          "internalType": "uint256[]",
          "name": "",
          "type": "uint256[]"
        }
      ],
      "stateMutability": "view",
      "type": "function"
    },
    {
      "inputs": [
        {
          "internalType": "address",
          "name": "account",
          "type": "address"
        },
        {
          "internalType": "address",
          "name": "operator",
          "type": "address"
        }
      ],
      "name": "isApprovedForAll",
      "outputs": [
        {
          "internalType": "bool",
          "name": "",
          "type": "bool"
        }
      ],
      "stateMutability": "view",
      "type": "function"
    },
    {
      "inputs": [
        {
          "internalType": "address",
          "name": "to",
          "type": "address"
        },
        {
          "internalType": "uint256",
          "name": "tokenId",
          "type": "uint256"
        },
        {
          "internalType": "uint256",
          "name": "amount",
          "type": "uint256"
        },
        {
          "internalType": "bytes",
          "name": "data",
          "type": "bytes"
        }
      ],
      "name": "mintBy",
      "outputs": [],
      "stateMutability": "nonpayable",
      "type": "function"
    },
    {
      "inputs": [
        {
          "internalType": "address",
          "name": "from",
          "type": "address"
        },
        {
          "internalType": "address",
          "name": "to",
          "type": "address"
        },
        {
          "internalType": "uint256[]",
          "name": "ids",
          "type": "uint256[]"
        },
        {
          "internalType": "uint256[]",
          "name": "amounts",
          "type": "uint256[]"
        },
        {
          "internalType": "bytes",
          "name": "data",
          "type": "bytes"
        }
      ],
      "name": "safeBatchTransferFrom",
      "outputs": [],
      "stateMutability": "nonpayable",
      "type": "function"
    },
    {
      "inputs": [
        {
          "internalType": "address",
          "name": "from",
          "type": "address"
        },
        {
          "internalType": "address",
          "name": "to",
          "type": "address"
        },
        {
          "internalType": "uint256",
          "name": "id",
          "type": "uint256"
        },
        {
          "internalType": "uint256",
          "name": "amount",
          "type": "uint256"
        },
        {
          "internalType": "bytes",
          "name": "data",
          "type": "bytes"
        }
      ],
      "name": "safeTransferFrom",
      "outputs": [],
      "stateMutability": "nonpayable",
      "type": "function"
    },
    {
      "inputs": [
        {
          "internalType": "address",
          "name": "operator",
          "type": "address"
        },
        {
          "internalType": "bool",
          "name": "approved",
          "type": "bool"
        }
      ],
      "name": "setApprovalForAll",
      "outputs": [],
      "stateMutability": "nonpayable",
      "type": "function"
    },
    {
      "inputs": [
        {
          "internalType": "bytes4",
          "name": "interfaceId",
          "type": "bytes4"
        }
      ],
      "name": "supportsInterface",
      "outputs": [
        {
          "internalType": "bool",
          "name": "",
          "type": "bool"
        }
      ],
      "stateMutability": "view",
      "type": "function"
    },
    {
      "inputs": [
        {
          "internalType": "uint256",
          "name": "",
          "type": "uint256"
        }
      ],
      "name": "uri",
      "outputs": [
        {
          "internalType": "string",
          "name": "",
          "type": "string"
        }
      ],
      "stateMutability": "view",
      "type": "function"
    }
  ],
  "bytecode": "0x60806040523480156200001157600080fd5b506040518060200160405280600081525062000033816200003a60201b60201c565b50620003b0565b80600290816200004b9190620002c9565b5050565b600081519050919050565b7f4e487b7100000000000000000000000000000000000000000000000000000000600052604160045260246000fd5b7f4e487b7100000000000000000000000000000000000000000000000000000000600052602260045260246000fd5b60006002820490506001821680620000d157607f821691505b602082108103620000e757620000e662000089565b5b50919050565b60008190508160005260206000209050919050565b60006020601f8301049050919050565b600082821b905092915050565b600060088302620001517fffffffffffffffffffffffffffffffffffffffffffffffffffffffffffffffff8262000112565b6200015d868362000112565b95508019841693508086168417925050509392505050565b6000819050919050565b6000819050919050565b6000620001aa620001a46200019e8462000175565b6200017f565b62000175565b9050919050565b6000819050919050565b620001c68362000189565b620001de620001d582620001b1565b8484546200011f565b825550505050565b600090565b620001f5620001e6565b62000202818484620001bb565b505050565b5b818110156200022a576200021e600082620001eb565b60018101905062000208565b5050565b601f82111562000279576200024381620000ed565b6200024e8462000102565b810160208510156200025e578190505b620002766200026d8562000102565b83018262000207565b50505b505050565b600082821c905092915050565b60006200029e600019846008026200027e565b1980831691505092915050565b6000620002b983836200028b565b9150826002028217905092915050565b620002d4826200004f565b67ffffffffffffffff811115620002f057620002ef6200005a565b5b620002fc8254620000b8565b620003098282856200022e565b600060209050601f8311600181146200034157600084156200032c578287015190505b620003388582620002ab565b865550620003a8565b601f1984166200035186620000ed565b60005b828110156200037b5784890151825560018201915060208501945060208101905062000354565b868310156200039b578489015162000397601f8916826200028b565b8355505b6001600288020188555050505b505050505050565b61289a80620003c06000396000f3fe608060405234801561001057600080fd5b50600436106100925760003560e01c80632eb2c2d6116100665780632eb2c2d6146101435780634e1273f41461015f578063a22cb4651461018f578063e985e9c5146101ab578063f242432a146101db57610092565b8062fdd58e1461009757806301ffc9a7146100c75780630a89a130146100f75780630e89341c14610113575b600080fd5b6100b160048036038101906100ac91906115de565b6101f7565b6040516100be919061162d565b60405180910390f35b6100e160048036038101906100dc91906116a0565b6102bf565b6040516100ee91906116e8565b60405180910390f35b610111600480360381019061010c9190611768565b6103a1565b005b61012d600480360381019061012891906117f0565b6103f8565b60405161013a91906118ad565b60405180910390f35b61015d60048036038101906101589190611ac2565b61048c565b005b61017960048036038101906101749190611c54565b61052d565b6040516101869190611d8a565b60405180910390f35b6101a960048036038101906101a49190611dd8565b610646565b005b6101c560048036038101906101c09190611e18565b61065c565b6040516101d291906116e8565b60405180910390f35b6101f560048036038101906101f09190611e58565b6106f0565b005b60008073ffffffffffffffffffffffffffffffffffffffff168373ffffffffffffffffffffffffffffffffffffffff1603610267576040517f08c379a000000000000000000000000000000000000000000000000000000000815260040161025e90611f61565b60405180910390fd5b60008083815260200190815260200160002060008473ffffffffffffffffffffffffffffffffffffffff1673ffffffffffffffffffffffffffffffffffffffff16815260200190815260200160002054905092915050565b60007fd9b67a26000000000000000000000000000000000000000000000000000000007bffffffffffffffffffffffffffffffffffffffffffffffffffffffff1916827bffffffffffffffffffffffffffffffffffffffffffffffffffffffff1916148061038a57507f0e89341c000000000000000000000000000000000000000000000000000000007bffffffffffffffffffffffffffffffffffffffffffffffffffffffff1916827bffffffffffffffffffffffffffffffffffffffffffffffffffffffff1916145b8061039a575061039982610791565b5b9050919050565b6103f185858585858080601f016020809104026020016040519081016040528093929190818152602001838380828437600081840152601f19601f820116905080830192505050505050506107fb565b5050505050565b60606002805461040790611fb0565b80601f016020809104026020016040519081016040528092919081815260200182805461043390611fb0565b80156104805780601f1061045557610100808354040283529160200191610480565b820191906000526020600020905b81548152906001019060200180831161046357829003601f168201915b50505050509050919050565b6104946109ab565b73ffffffffffffffffffffffffffffffffffffffff168573ffffffffffffffffffffffffffffffffffffffff1614806104da57506104d9856104d46109ab565b61065c565b5b610519576040517f08c379a000000000000000000000000000000000000000000000000000000000815260040161051090612053565b60405180910390fd5b61052685858585856109b3565b5050505050565b60608151835114610573576040517f08c379a000000000000000000000000000000000000000000000000000000000815260040161056a906120e5565b60405180910390fd5b6000835167ffffffffffffffff8111156105905761058f6118cf565b5b6040519080825280602002602001820160405280156105be5781602001602082028036833780820191505090505b50905060005b845181101561063b5761060b8582815181106105e3576105e2612105565b5b60200260200101518583815181106105fe576105fd612105565b5b60200260200101516101f7565b82828151811061061e5761061d612105565b5b6020026020010181815250508061063490612163565b90506105c4565b508091505092915050565b6106586106516109ab565b8383610cd4565b5050565b6000600160008473ffffffffffffffffffffffffffffffffffffffff1673ffffffffffffffffffffffffffffffffffffffff16815260200190815260200160002060008373ffffffffffffffffffffffffffffffffffffffff1673ffffffffffffffffffffffffffffffffffffffff16815260200190815260200160002060009054906101000a900460ff16905092915050565b6106f86109ab565b73ffffffffffffffffffffffffffffffffffffffff168573ffffffffffffffffffffffffffffffffffffffff16148061073e575061073d856107386109ab565b61065c565b5b61077d576040517f08c379a000000000000000000000000000000000000000000000000000000000815260040161077490612053565b60405180910390fd5b61078a8585858585610e40565b5050505050565b60007f01ffc9a7000000000000000000000000000000000000000000000000000000007bffffffffffffffffffffffffffffffffffffffffffffffffffffffff1916827bffffffffffffffffffffffffffffffffffffffffffffffffffffffff1916149050919050565b600073ffffffffffffffffffffffffffffffffffffffff168473ffffffffffffffffffffffffffffffffffffffff160361086a576040517f08c379a00000000000000000000000000000000000000000000000000000000081526004016108619061221d565b60405180910390fd5b60006108746109ab565b90506000610881856110db565b9050600061088e856110db565b905061089f83600089858589611155565b8460008088815260200190815260200160002060008973ffffffffffffffffffffffffffffffffffffffff1673ffffffffffffffffffffffffffffffffffffffff16815260200190815260200160002060008282546108fe919061223d565b925050819055508673ffffffffffffffffffffffffffffffffffffffff16600073ffffffffffffffffffffffffffffffffffffffff168473ffffffffffffffffffffffffffffffffffffffff167fc3d58168c5ae7397731d063d5bbf3d657854427343f4c083240f7aacaa2d0f62898960405161097c929190612271565b60405180910390a46109938360008985858961115d565b6109a283600089898989611165565b50505050505050565b600033905090565b81518351146109f7576040517f08c379a00000000000000000000000000000000000000000000000000000000081526004016109ee9061230c565b60405180910390fd5b600073ffffffffffffffffffffffffffffffffffffffff168473ffffffffffffffffffffffffffffffffffffffff1603610a66576040517f08c379a0000000000000000000000000000000000000000000000000000000008152600401610a5d9061239e565b60405180910390fd5b6000610a706109ab565b9050610a80818787878787611155565b60005b8451811015610c31576000858281518110610aa157610aa0612105565b5b602002602001015190506000858381518110610ac057610abf612105565b5b60200260200101519050600080600084815260200190815260200160002060008b73ffffffffffffffffffffffffffffffffffffffff1673ffffffffffffffffffffffffffffffffffffffff16815260200190815260200160002054905081811015610b61576040517f08c379a0000000000000000000000000000000000000000000000000000000008152600401610b5890612430565b60405180910390fd5b81810360008085815260200190815260200160002060008c73ffffffffffffffffffffffffffffffffffffffff1673ffffffffffffffffffffffffffffffffffffffff168152602001908152602001600020819055508160008085815260200190815260200160002060008b73ffffffffffffffffffffffffffffffffffffffff1673ffffffffffffffffffffffffffffffffffffffff1681526020019081526020016000206000828254610c16919061223d565b9250508190555050505080610c2a90612163565b9050610a83565b508473ffffffffffffffffffffffffffffffffffffffff168673ffffffffffffffffffffffffffffffffffffffff168273ffffffffffffffffffffffffffffffffffffffff167f4a39dc06d4c0dbc64b70af90fd698a233a518aa5d07e595d983b8c0526c8f7fb8787604051610ca8929190612450565b60405180910390a4610cbe81878787878761115d565b610ccc81878787878761133c565b505050505050565b8173ffffffffffffffffffffffffffffffffffffffff168373ffffffffffffffffffffffffffffffffffffffff1603610d42576040517f08c379a0000000000000000000000000000000000000000000000000000000008152600401610d39906124f9565b60405180910390fd5b80600160008573ffffffffffffffffffffffffffffffffffffffff1673ffffffffffffffffffffffffffffffffffffffff16815260200190815260200160002060008473ffffffffffffffffffffffffffffffffffffffff1673ffffffffffffffffffffffffffffffffffffffff16815260200190815260200160002060006101000a81548160ff0219169083151502179055508173ffffffffffffffffffffffffffffffffffffffff168373ffffffffffffffffffffffffffffffffffffffff167f17307eab39ab6107e8899845ad3d59bd9653f200f220920489ca2b5937696c3183604051610e3391906116e8565b60405180910390a3505050565b600073ffffffffffffffffffffffffffffffffffffffff168473ffffffffffffffffffffffffffffffffffffffff1603610eaf576040517f08c379a0000000000000000000000000000000000000000000000000000000008152600401610ea69061239e565b60405180910390fd5b6000610eb96109ab565b90506000610ec6856110db565b90506000610ed3856110db565b9050610ee3838989858589611155565b600080600088815260200190815260200160002060008a73ffffffffffffffffffffffffffffffffffffffff1673ffffffffffffffffffffffffffffffffffffffff16815260200190815260200160002054905085811015610f7a576040517f08c379a0000000000000000000000000000000000000000000000000000000008152600401610f7190612430565b60405180910390fd5b85810360008089815260200190815260200160002060008b73ffffffffffffffffffffffffffffffffffffffff1673ffffffffffffffffffffffffffffffffffffffff168152602001908152602001600020819055508560008089815260200190815260200160002060008a73ffffffffffffffffffffffffffffffffffffffff1673ffffffffffffffffffffffffffffffffffffffff168152602001908152602001600020600082825461102f919061223d565b925050819055508773ffffffffffffffffffffffffffffffffffffffff168973ffffffffffffffffffffffffffffffffffffffff168573ffffffffffffffffffffffffffffffffffffffff167fc3d58168c5ae7397731d063d5bbf3d657854427343f4c083240f7aacaa2d0f628a8a6040516110ac929190612271565b60405180910390a46110c2848a8a86868a61115d565b6110d0848a8a8a8a8a611165565b505050505050505050565b60606000600167ffffffffffffffff8111156110fa576110f96118cf565b5b6040519080825280602002602001820160405280156111285781602001602082028036833780820191505090505b50905082816000815181106111405761113f612105565b5b60200260200101818152505080915050919050565b505050505050565b505050505050565b6111848473ffffffffffffffffffffffffffffffffffffffff16611513565b15611334578373ffffffffffffffffffffffffffffffffffffffff1663f23a6e6187878686866040518663ffffffff1660e01b81526004016111ca95949392919061257d565b6020604051808303816000875af192505050801561120657506040513d601f19601f8201168201806040525081019061120391906125ec565b60015b6112ab57611212612626565b806308c379a00361126e5750611226612648565b806112315750611270565b806040517f08c379a000000000000000000000000000000000000000000000000000000000815260040161126591906118ad565b60405180910390fd5b505b6040517f08c379a00000000000000000000000000000000000000000000000000000000081526004016112a29061274a565b60405180910390fd5b63f23a6e6160e01b7bffffffffffffffffffffffffffffffffffffffffffffffffffffffff1916817bffffffffffffffffffffffffffffffffffffffffffffffffffffffff191614611332576040517f08c379a0000000000000000000000000000000000000000000000000000000008152600401611329906127dc565b60405180910390fd5b505b505050505050565b61135b8473ffffffffffffffffffffffffffffffffffffffff16611513565b1561150b578373ffffffffffffffffffffffffffffffffffffffff1663bc197c8187878686866040518663ffffffff1660e01b81526004016113a19594939291906127fc565b6020604051808303816000875af19250505080156113dd57506040513d601f19601f820116820180604052508101906113da91906125ec565b60015b611482576113e9612626565b806308c379a00361144557506113fd612648565b806114085750611447565b806040517f08c379a000000000000000000000000000000000000000000000000000000000815260040161143c91906118ad565b60405180910390fd5b505b6040517f08c379a00000000000000000000000000000000000000000000000000000000081526004016114799061274a565b60405180910390fd5b63bc197c8160e01b7bffffffffffffffffffffffffffffffffffffffffffffffffffffffff1916817bffffffffffffffffffffffffffffffffffffffffffffffffffffffff191614611509576040517f08c379a0000000000000000000000000000000000000000000000000000000008152600401611500906127dc565b60405180910390fd5b505b505050505050565b6000808273ffffffffffffffffffffffffffffffffffffffff163b119050919050565b6000604051905090565b600080fd5b600080fd5b600073ffffffffffffffffffffffffffffffffffffffff82169050919050565b60006115758261154a565b9050919050565b6115858161156a565b811461159057600080fd5b50565b6000813590506115a28161157c565b92915050565b6000819050919050565b6115bb816115a8565b81146115c657600080fd5b50565b6000813590506115d8816115b2565b92915050565b600080604083850312156115f5576115f4611540565b5b600061160385828601611593565b9250506020611614858286016115c9565b9150509250929050565b611627816115a8565b82525050565b6000602082019050611642600083018461161e565b92915050565b60007fffffffff0000000000000000000000000000000000000000000000000000000082169050919050565b61167d81611648565b811461168857600080fd5b50565b60008135905061169a81611674565b92915050565b6000602082840312156116b6576116b5611540565b5b60006116c48482850161168b565b91505092915050565b60008115159050919050565b6116e2816116cd565b82525050565b60006020820190506116fd60008301846116d9565b92915050565b600080fd5b600080fd5b600080fd5b60008083601f84011261172857611727611703565b5b8235905067ffffffffffffffff81111561174557611744611708565b5b6020830191508360018202830111156117615761176061170d565b5b9250929050565b60008060008060006080868803121561178457611783611540565b5b600061179288828901611593565b95505060206117a3888289016115c9565b94505060406117b4888289016115c9565b935050606086013567ffffffffffffffff8111156117d5576117d4611545565b5b6117e188828901611712565b92509250509295509295909350565b60006020828403121561180657611805611540565b5b6000611814848285016115c9565b91505092915050565b600081519050919050565b600082825260208201905092915050565b60005b8381101561185757808201518184015260208101905061183c565b60008484015250505050565b6000601f19601f8301169050919050565b600061187f8261181d565b6118898185611828565b9350611899818560208601611839565b6118a281611863565b840191505092915050565b600060208201905081810360008301526118c78184611874565b905092915050565b7f4e487b7100000000000000000000000000000000000000000000000000000000600052604160045260246000fd5b61190782611863565b810181811067ffffffffffffffff82111715611926576119256118cf565b5b80604052505050565b6000611939611536565b905061194582826118fe565b919050565b600067ffffffffffffffff821115611965576119646118cf565b5b602082029050602081019050919050565b60006119896119848461194a565b61192f565b905080838252602082019050602084028301858111156119ac576119ab61170d565b5b835b818110156119d557806119c188826115c9565b8452602084019350506020810190506119ae565b5050509392505050565b600082601f8301126119f4576119f3611703565b5b8135611a04848260208601611976565b91505092915050565b600080fd5b600067ffffffffffffffff821115611a2d57611a2c6118cf565b5b611a3682611863565b9050602081019050919050565b82818337600083830152505050565b6000611a65611a6084611a12565b61192f565b905082815260208101848484011115611a8157611a80611a0d565b5b611a8c848285611a43565b509392505050565b600082601f830112611aa957611aa8611703565b5b8135611ab9848260208601611a52565b91505092915050565b600080600080600060a08688031215611ade57611add611540565b5b6000611aec88828901611593565b9550506020611afd88828901611593565b945050604086013567ffffffffffffffff811115611b1e57611b1d611545565b5b611b2a888289016119df565b935050606086013567ffffffffffffffff811115611b4b57611b4a611545565b5b611b57888289016119df565b925050608086013567ffffffffffffffff811115611b7857611b77611545565b5b611b8488828901611a94565b9150509295509295909350565b600067ffffffffffffffff821115611bac57611bab6118cf565b5b602082029050602081019050919050565b6000611bd0611bcb84611b91565b61192f565b90508083825260208201905060208402830185811115611bf357611bf261170d565b5b835b81811015611c1c5780611c088882611593565b845260208401935050602081019050611bf5565b5050509392505050565b600082601f830112611c3b57611c3a611703565b5b8135611c4b848260208601611bbd565b91505092915050565b60008060408385031215611c6b57611c6a611540565b5b600083013567ffffffffffffffff811115611c8957611c88611545565b5b611c9585828601611c26565b925050602083013567ffffffffffffffff811115611cb657611cb5611545565b5b611cc2858286016119df565b9150509250929050565b600081519050919050565b600082825260208201905092915050565b6000819050602082019050919050565b611d01816115a8565b82525050565b6000611d138383611cf8565b60208301905092915050565b6000602082019050919050565b6000611d3782611ccc565b611d418185611cd7565b9350611d4c83611ce8565b8060005b83811015611d7d578151611d648882611d07565b9750611d6f83611d1f565b925050600181019050611d50565b5085935050505092915050565b60006020820190508181036000830152611da48184611d2c565b905092915050565b611db5816116cd565b8114611dc057600080fd5b50565b600081359050611dd281611dac565b92915050565b60008060408385031215611def57611dee611540565b5b6000611dfd85828601611593565b9250506020611e0e85828601611dc3565b9150509250929050565b60008060408385031215611e2f57611e2e611540565b5b6000611e3d85828601611593565b9250506020611e4e85828601611593565b9150509250929050565b600080600080600060a08688031215611e7457611e73611540565b5b6000611e8288828901611593565b9550506020611e9388828901611593565b9450506040611ea4888289016115c9565b9350506060611eb5888289016115c9565b925050608086013567ffffffffffffffff811115611ed657611ed5611545565b5b611ee288828901611a94565b9150509295509295909350565b7f455243313135353a2061646472657373207a65726f206973206e6f742061207660008201527f616c6964206f776e657200000000000000000000000000000000000000000000602082015250565b6000611f4b602a83611828565b9150611f5682611eef565b604082019050919050565b60006020820190508181036000830152611f7a81611f3e565b9050919050565b7f4e487b7100000000000000000000000000000000000000000000000000000000600052602260045260246000fd5b60006002820490506001821680611fc857607f821691505b602082108103611fdb57611fda611f81565b5b50919050565b7f455243313135353a2063616c6c6572206973206e6f7420746f6b656e206f776e60008201527f6572206e6f7220617070726f7665640000000000000000000000000000000000602082015250565b600061203d602f83611828565b915061204882611fe1565b604082019050919050565b6000602082019050818103600083015261206c81612030565b9050919050565b7f455243313135353a206163636f756e747320616e6420696473206c656e67746860008201527f206d69736d617463680000000000000000000000000000000000000000000000602082015250565b60006120cf602983611828565b91506120da82612073565b604082019050919050565b600060208201905081810360008301526120fe816120c2565b9050919050565b7f4e487b7100000000000000000000000000000000000000000000000000000000600052603260045260246000fd5b7f4e487b7100000000000000000000000000000000000000000000000000000000600052601160045260246000fd5b600061216e826115a8565b91507fffffffffffffffffffffffffffffffffffffffffffffffffffffffffffffffff82036121a05761219f612134565b5b600182019050919050565b7f455243313135353a206d696e7420746f20746865207a65726f2061646472657360008201527f7300000000000000000000000000000000000000000000000000000000000000602082015250565b6000612207602183611828565b9150612212826121ab565b604082019050919050565b60006020820190508181036000830152612236816121fa565b9050919050565b6000612248826115a8565b9150612253836115a8565b925082820190508082111561226b5761226a612134565b5b92915050565b6000604082019050612286600083018561161e565b612293602083018461161e565b9392505050565b7f455243313135353a2069647320616e6420616d6f756e7473206c656e6774682060008201527f6d69736d61746368000000000000000000000000000000000000000000000000602082015250565b60006122f6602883611828565b91506123018261229a565b604082019050919050565b60006020820190508181036000830152612325816122e9565b9050919050565b7f455243313135353a207472616e7366657220746f20746865207a65726f20616460008201527f6472657373000000000000000000000000000000000000000000000000000000602082015250565b6000612388602583611828565b91506123938261232c565b604082019050919050565b600060208201905081810360008301526123b78161237b565b9050919050565b7f455243313135353a20696e73756666696369656e742062616c616e636520666f60008201527f72207472616e7366657200000000000000000000000000000000000000000000602082015250565b600061241a602a83611828565b9150612425826123be565b604082019050919050565b600060208201905081810360008301526124498161240d565b9050919050565b6000604082019050818103600083015261246a8185611d2c565b9050818103602083015261247e8184611d2c565b90509392505050565b7f455243313135353a2073657474696e6720617070726f76616c2073746174757360008201527f20666f722073656c660000000000000000000000000000000000000000000000602082015250565b60006124e3602983611828565b91506124ee82612487565b604082019050919050565b60006020820190508181036000830152612512816124d6565b9050919050565b6125228161156a565b82525050565b600081519050919050565b600082825260208201905092915050565b600061254f82612528565b6125598185612533565b9350612569818560208601611839565b61257281611863565b840191505092915050565b600060a0820190506125926000830188612519565b61259f6020830187612519565b6125ac604083018661161e565b6125b9606083018561161e565b81810360808301526125cb8184612544565b90509695505050505050565b6000815190506125e681611674565b92915050565b60006020828403121561260257612601611540565b5b6000612610848285016125d7565b91505092915050565b60008160e01c9050919050565b600060033d11156126455760046000803e612642600051612619565b90505b90565b600060443d106126d55761265a611536565b60043d036004823e80513d602482011167ffffffffffffffff821117156126825750506126d5565b808201805167ffffffffffffffff8111156126a057505050506126d5565b80602083010160043d0385018111156126bd5750505050506126d5565b6126cc826020018501866118fe565b82955050505050505b90565b7f455243313135353a207472616e7366657220746f206e6f6e204552433131353560008201527f526563656976657220696d706c656d656e746572000000000000000000000000602082015250565b6000612734603483611828565b915061273f826126d8565b604082019050919050565b6000602082019050818103600083015261276381612727565b9050919050565b7f455243313135353a204552433131353552656365697665722072656a6563746560008201527f6420746f6b656e73000000000000000000000000000000000000000000000000602082015250565b60006127c6602883611828565b91506127d18261276a565b604082019050919050565b600060208201905081810360008301526127f5816127b9565b9050919050565b600060a0820190506128116000830188612519565b61281e6020830187612519565b81810360408301526128308186611d2c565b905081810360608301526128448185611d2c565b905081810360808301526128588184612544565b9050969550505050505056fea264697066735822122075a82044e77336494ab49a79d509fb9cb8b5dcc5703cd340a079f146f673547a64736f6c63430008110033",
  "linkReferences": {},
  "deployedLinkReferences": {}
}