{
  "_format": "hh-sol-artifact-1",
  "contractName": "RewardERC721",
  "sourceName": "contracts/RewardERC721.sol",
  "abi": [
    {
      "inputs": [
        {
          "internalType": "string",
          "name": "name",
          "type": "string"
        },
        {
          "internalType": "string",
          "name": "symbol",
          "type": "string"
        }
      ],
      "stateMutability": "nonpayable",
      "type": "constructor"
    },
    {
      "anonymous": false,
      "inputs": [
        {
          "indexed": true,
          "internalType": "address",
          "name": "owner",
          "type": "address"
        },
        {
          "indexed": true,
          "internalType": "address",
          "name": "approved",
          "type": "address"
        },
        {
          "indexed": true,
          "internalType": "uint256",
          "name": "tokenId",
          "type": "uint256"
        }
      ],
      "name": "Approval",
      "type": "event"
    },
    {
      "anonymous": false,
      "inputs": [
        {
          "indexed": true,
          "internalType": "address",
          "name": "owner",
          "type": "address"
        },
        {
          "indexed": true,
          "internalType": "address",
          "name": "operator",
          "type": "address"
        },
        {
          "indexed": false,
          "internalType": "bool",
          "name": "approved",
          "type": "bool"
        }
      ],
      "name": "ApprovalForAll",
      "type": "event"
    },
    {
      "anonymous": false,
      "inputs": [
        {
          "indexed": true,
          "internalType": "address",
          "name": "from",
          "type": "address"
        },
        {
          "indexed": true,
          "internalType": "address",
          "name": "to",
          "type": "address"
        },
        {
          "indexed": true,
          "internalType": "uint256",
          "name": "tokenId",
          "type": "uint256"
        }
      ],
      "name": "Transfer",
      "type": "event"
    },
    {
      "inputs": [
        {
          "internalType": "address",
          "name": "to",
          "type": "address"
        },
        {
          "internalType": "uint256",
          "name": "tokenId",
          "type": "uint256"
        }
      ],
      "name": "approve",
      "outputs": [],
      "stateMutability": "nonpayable",
      "type": "function"
    },
    {
      "inputs": [
        {
          "internalType": "address",
          "name": "owner",
          "type": "address"
        }
      ],
      "name": "balanceOf",
      "outputs": [
        {
          "internalType": "uint256",
          "name": "",
          "type": "uint256"
        }
      ],
      "stateMutability": "view",
      "type": "function"
    },
    {
      "inputs": [
        {
          "internalType": "uint256",
          "name": "tokenId",
          "type": "uint256"
        }
      ],
      "name": "getApproved",
      "outputs": [
        {
          "internalType": "address",
          "name": "",
          "type": "address"
        }
      ],
      "stateMutability": "view",
      "type": "function"
    },
    {
      "inputs": [
        {
          "internalType": "address",
          "name": "owner",
          "type": "address"
        },
        {
          "internalType": "address",
          "name": "operator",
          "type": "address"
        }
      ],
      "name": "isApprovedForAll",
      "outputs": [
        {
          "internalType": "bool",
          "name": "",
          "type": "bool"
        }
      ],
      "stateMutability": "view",
      "type": "function"
    },
    {
      "inputs": [],
      "name": "name",
      "outputs": [
        {
          "internalType": "string",
          "name": "",
          "type": "string"
        }
      ],
      "stateMutability": "view",
      "type": "function"
    },
    {
      "inputs": [
        {
          "internalType": "uint256",
          "name": "tokenId",
          "type": "uint256"
        }
      ],
      "name": "ownerOf",
      "outputs": [
        {
          "internalType": "address",
          "name": "",
          "type": "address"
        }
      ],
      "stateMutability": "view",
      "type": "function"
    },
    {
      "inputs": [
        {
          "internalType": "address",
          "name": "to",
          "type": "address"
        },
        {
          "internalType": "uint256",
          "name": "tokenId",
          "type": "uint256"
        }
      ],
      "name": "safeMint",
      "outputs": [],
      "stateMutability": "nonpayable",
      "type": "function"
    },
    {
      "inputs": [
        {
          "internalType": "address",
          "name": "from",
          "type": "address"
        },
        {
          "internalType": "address",
          "name": "to",
          "type": "address"
        },
        {
          "internalType": "uint256",
          "name": "tokenId",
          "type": "uint256"
        }
      ],
      "name": "safeTransferFrom",
      "outputs": [],
      "stateMutability": "nonpayable",
      "type": "function"
    },
    {
      "inputs": [
        {
          "internalType": "address",
          "name": "from",
          "type": "address"
        },
        {
          "internalType": "address",
          "name": "to",
          "type": "address"
        },
        {
          "internalType": "uint256",
          "name": "tokenId",
          "type": "uint256"
        },
        {
          "internalType": "bytes",
          "name": "data",
          "type": "bytes"
        }
      ],
      "name": "safeTransferFrom",
      "outputs": [],
      "stateMutability": "nonpayable",
      "type": "function"
    },
    {
      "inputs": [
        {
          "internalType": "address",
          "name": "operator",
          "type": "address"
        },
        {
          "internalType": "bool",
          "name": "approved",
          "type": "bool"
        }
      ],
      "name": "setApprovalForAll",
      "outputs": [],
      "stateMutability": "nonpayable",
      "type": "function"
    },
    {
      "inputs": [
        {
          "internalType": "bytes4",
          "name": "interfaceId",
          "type": "bytes4"
        }
      ],
      "name": "supportsInterface",
      "outputs": [
        {
          "internalType": "bool",
          "name": "",
          "type": "bool"
        }
      ],
      "stateMutability": "view",
      "type": "function"
    },
    {
      "inputs": [],
      "name": "symbol",
      "outputs": [
        {
          "internalType": "string",
          "name": "",
          "type": "string"
        }
      ],
      "stateMutability": "view",
      "type": "function"
    },
    {
      "inputs": [
        {
          "internalType": "uint256",
          "name": "tokenId",
          "type": "uint256"
        }
      ],
      "name": "tokenURI",
      "outputs": [
        {
          "internalType": "string",
          "name": "",
          "type": "string"
        }
      ],
      "stateMutability": "view",
      "type": "function"
    },
    {
      "inputs": [
        {
          "internalType": "address",
          "name": "from",
          "type": "address"
        },
        {
          "internalType": "address",
          "name": "to",
          "type": "address"
        },
        {
          "internalType": "uint256",
          "name": "tokenId",
          "type": "uint256"
        }
      ],
      "name": "transferFrom",
      "outputs": [],
      "stateMutability": "nonpayable",
      "type": "function"
    }
  ],
  "bytecode": "0x60806040523480156200001157600080fd5b5060405162002aed38038062002aed833981810160405281019062000037919062000264565b6040518060400160405280600481526020017f6e616d65000000000000000000000000000000000000000000000000000000008152506040518060400160405280600681526020017f73796d626f6c00000000000000000000000000000000000000000000000000008152508160009081620000b4919062000534565b508060019081620000c6919062000534565b50505050506200061b565b6000604051905090565b600080fd5b600080fd5b600080fd5b600080fd5b6000601f19601f8301169050919050565b7f4e487b7100000000000000000000000000000000000000000000000000000000600052604160045260246000fd5b6200013a82620000ef565b810181811067ffffffffffffffff821117156200015c576200015b62000100565b5b80604052505050565b600062000171620000d1565b90506200017f82826200012f565b919050565b600067ffffffffffffffff821115620001a257620001a162000100565b5b620001ad82620000ef565b9050602081019050919050565b60005b83811015620001da578082015181840152602081019050620001bd565b60008484015250505050565b6000620001fd620001f78462000184565b62000165565b9050828152602081018484840111156200021c576200021b620000ea565b5b62000229848285620001ba565b509392505050565b600082601f830112620002495762000248620000e5565b5b81516200025b848260208601620001e6565b91505092915050565b600080604083850312156200027e576200027d620000db565b5b600083015167ffffffffffffffff8111156200029f576200029e620000e0565b5b620002ad8582860162000231565b925050602083015167ffffffffffffffff811115620002d157620002d0620000e0565b5b620002df8582860162000231565b9150509250929050565b600081519050919050565b7f4e487b7100000000000000000000000000000000000000000000000000000000600052602260045260246000fd5b600060028204905060018216806200033c57607f821691505b602082108103620003525762000351620002f4565b5b50919050565b60008190508160005260206000209050919050565b60006020601f8301049050919050565b600082821b905092915050565b600060088302620003bc7fffffffffffffffffffffffffffffffffffffffffffffffffffffffffffffffff826200037d565b620003c886836200037d565b95508019841693508086168417925050509392505050565b6000819050919050565b6000819050919050565b6000620004156200040f6200040984620003e0565b620003ea565b620003e0565b9050919050565b6000819050919050565b6200043183620003f4565b6200044962000440826200041c565b8484546200038a565b825550505050565b600090565b6200046062000451565b6200046d81848462000426565b505050565b5b8181101562000495576200048960008262000456565b60018101905062000473565b5050565b601f821115620004e457620004ae8162000358565b620004b9846200036d565b81016020851015620004c9578190505b620004e1620004d8856200036d565b83018262000472565b50505b505050565b600082821c905092915050565b60006200050960001984600802620004e9565b1980831691505092915050565b6000620005248383620004f6565b9150826002028217905092915050565b6200053f82620002e9565b67ffffffffffffffff8111156200055b576200055a62000100565b5b62000567825462000323565b6200057482828562000499565b600060209050601f831160018114620005ac576000841562000597578287015190505b620005a3858262000516565b86555062000613565b601f198416620005bc8662000358565b60005b82811015620005e657848901518255600182019150602085019450602081019050620005bf565b8683101562000606578489015162000602601f891682620004f6565b8355505b6001600288020188555050505b505050505050565b6124c2806200062b6000396000f3fe608060405234801561001057600080fd5b50600436106100ea5760003560e01c806370a082311161008c578063a22cb46511610066578063a22cb4651461025b578063b88d4fde14610277578063c87b56dd14610293578063e985e9c5146102c3576100ea565b806370a08231146101f157806395d89b4114610221578063a14481941461023f576100ea565b8063095ea7b3116100c8578063095ea7b31461016d57806323b872dd1461018957806342842e0e146101a55780636352211e146101c1576100ea565b806301ffc9a7146100ef57806306fdde031461011f578063081812fc1461013d575b600080fd5b6101096004803603810190610104919061164e565b6102f3565b6040516101169190611696565b60405180910390f35b6101276103d5565b6040516101349190611741565b60405180910390f35b61015760048036038101906101529190611799565b610467565b6040516101649190611807565b60405180910390f35b6101876004803603810190610182919061184e565b6104ad565b005b6101a3600480360381019061019e919061188e565b6105c4565b005b6101bf60048036038101906101ba919061188e565b610624565b005b6101db60048036038101906101d69190611799565b610644565b6040516101e89190611807565b60405180910390f35b61020b600480360381019061020691906118e1565b6106f5565b604051610218919061191d565b60405180910390f35b6102296107ac565b6040516102369190611741565b60405180910390f35b6102596004803603810190610254919061184e565b61083e565b005b61027560048036038101906102709190611964565b61084c565b005b610291600480360381019061028c9190611ad9565b610862565b005b6102ad60048036038101906102a89190611799565b6108c4565b6040516102ba9190611741565b60405180910390f35b6102dd60048036038101906102d89190611b5c565b61092c565b6040516102ea9190611696565b60405180910390f35b60007f80ac58cd000000000000000000000000000000000000000000000000000000007bffffffffffffffffffffffffffffffffffffffffffffffffffffffff1916827bffffffffffffffffffffffffffffffffffffffffffffffffffffffff191614806103be57507f5b5e139f000000000000000000000000000000000000000000000000000000007bffffffffffffffffffffffffffffffffffffffffffffffffffffffff1916827bffffffffffffffffffffffffffffffffffffffffffffffffffffffff1916145b806103ce57506103cd826109c0565b5b9050919050565b6060600080546103e490611bcb565b80601f016020809104026020016040519081016040528092919081815260200182805461041090611bcb565b801561045d5780601f106104325761010080835404028352916020019161045d565b820191906000526020600020905b81548152906001019060200180831161044057829003601f168201915b5050505050905090565b600061047282610a2a565b6004600083815260200190815260200160002060009054906101000a900473ffffffffffffffffffffffffffffffffffffffff169050919050565b60006104b882610644565b90508073ffffffffffffffffffffffffffffffffffffffff168373ffffffffffffffffffffffffffffffffffffffff1603610528576040517f08c379a000000000000000000000000000000000000000000000000000000000815260040161051f90611c6e565b60405180910390fd5b8073ffffffffffffffffffffffffffffffffffffffff16610547610a75565b73ffffffffffffffffffffffffffffffffffffffff161480610576575061057581610570610a75565b61092c565b5b6105b5576040517f08c379a00000000000000000000000000000000000000000000000000000000081526004016105ac90611d00565b60405180910390fd5b6105bf8383610a7d565b505050565b6105d56105cf610a75565b82610b36565b610614576040517f08c379a000000000000000000000000000000000000000000000000000000000815260040161060b90611d92565b60405180910390fd5b61061f838383610bcb565b505050565b61063f83838360405180602001604052806000815250610862565b505050565b6000806002600084815260200190815260200160002060009054906101000a900473ffffffffffffffffffffffffffffffffffffffff169050600073ffffffffffffffffffffffffffffffffffffffff168173ffffffffffffffffffffffffffffffffffffffff16036106ec576040517f08c379a00000000000000000000000000000000000000000000000000000000081526004016106e390611dfe565b60405180910390fd5b80915050919050565b60008073ffffffffffffffffffffffffffffffffffffffff168273ffffffffffffffffffffffffffffffffffffffff1603610765576040517f08c379a000000000000000000000000000000000000000000000000000000000815260040161075c90611e90565b60405180910390fd5b600360008373ffffffffffffffffffffffffffffffffffffffff1673ffffffffffffffffffffffffffffffffffffffff168152602001908152602001600020549050919050565b6060600180546107bb90611bcb565b80601f01602080910402602001604051908101604052809291908181526020018280546107e790611bcb565b80156108345780601f1061080957610100808354040283529160200191610834565b820191906000526020600020905b81548152906001019060200180831161081757829003601f168201915b5050505050905090565b6108488282610e31565b5050565b61085e610857610a75565b8383610e4f565b5050565b61087361086d610a75565b83610b36565b6108b2576040517f08c379a00000000000000000000000000000000000000000000000000000000081526004016108a990611d92565b60405180910390fd5b6108be84848484610fbb565b50505050565b60606108cf82610a2a565b60006108d9611017565b905060008151116108f95760405180602001604052806000815250610924565b806109038461102e565b604051602001610914929190611eec565b6040516020818303038152906040525b915050919050565b6000600560008473ffffffffffffffffffffffffffffffffffffffff1673ffffffffffffffffffffffffffffffffffffffff16815260200190815260200160002060008373ffffffffffffffffffffffffffffffffffffffff1673ffffffffffffffffffffffffffffffffffffffff16815260200190815260200160002060009054906101000a900460ff16905092915050565b60007f01ffc9a7000000000000000000000000000000000000000000000000000000007bffffffffffffffffffffffffffffffffffffffffffffffffffffffff1916827bffffffffffffffffffffffffffffffffffffffffffffffffffffffff1916149050919050565b610a338161118e565b610a72576040517f08c379a0000000000000000000000000000000000000000000000000000000008152600401610a6990611dfe565b60405180910390fd5b50565b600033905090565b816004600083815260200190815260200160002060006101000a81548173ffffffffffffffffffffffffffffffffffffffff021916908373ffffffffffffffffffffffffffffffffffffffff160217905550808273ffffffffffffffffffffffffffffffffffffffff16610af083610644565b73ffffffffffffffffffffffffffffffffffffffff167f8c5be1e5ebec7d5bd14f71427d1e84f3dd0314c0f7b2291e5b200ac8c7c3b92560405160405180910390a45050565b600080610b4283610644565b90508073ffffffffffffffffffffffffffffffffffffffff168473ffffffffffffffffffffffffffffffffffffffff161480610b845750610b83818561092c565b5b80610bc257508373ffffffffffffffffffffffffffffffffffffffff16610baa84610467565b73ffffffffffffffffffffffffffffffffffffffff16145b91505092915050565b8273ffffffffffffffffffffffffffffffffffffffff16610beb82610644565b73ffffffffffffffffffffffffffffffffffffffff1614610c41576040517f08c379a0000000000000000000000000000000000000000000000000000000008152600401610c3890611f82565b60405180910390fd5b600073ffffffffffffffffffffffffffffffffffffffff168273ffffffffffffffffffffffffffffffffffffffff1603610cb0576040517f08c379a0000000000000000000000000000000000000000000000000000000008152600401610ca790612014565b60405180910390fd5b610cbb8383836111fa565b610cc6600082610a7d565b6001600360008573ffffffffffffffffffffffffffffffffffffffff1673ffffffffffffffffffffffffffffffffffffffff1681526020019081526020016000206000828254610d169190612063565b925050819055506001600360008473ffffffffffffffffffffffffffffffffffffffff1673ffffffffffffffffffffffffffffffffffffffff1681526020019081526020016000206000828254610d6d9190612097565b92505081905550816002600083815260200190815260200160002060006101000a81548173ffffffffffffffffffffffffffffffffffffffff021916908373ffffffffffffffffffffffffffffffffffffffff160217905550808273ffffffffffffffffffffffffffffffffffffffff168473ffffffffffffffffffffffffffffffffffffffff167fddf252ad1be2c89b69c2b068fc378daa952ba7f163c4a11628f55a4df523b3ef60405160405180910390a4610e2c8383836111ff565b505050565b610e4b828260405180602001604052806000815250611204565b5050565b8173ffffffffffffffffffffffffffffffffffffffff168373ffffffffffffffffffffffffffffffffffffffff1603610ebd576040517f08c379a0000000000000000000000000000000000000000000000000000000008152600401610eb490612117565b60405180910390fd5b80600560008573ffffffffffffffffffffffffffffffffffffffff1673ffffffffffffffffffffffffffffffffffffffff16815260200190815260200160002060008473ffffffffffffffffffffffffffffffffffffffff1673ffffffffffffffffffffffffffffffffffffffff16815260200190815260200160002060006101000a81548160ff0219169083151502179055508173ffffffffffffffffffffffffffffffffffffffff168373ffffffffffffffffffffffffffffffffffffffff167f17307eab39ab6107e8899845ad3d59bd9653f200f220920489ca2b5937696c3183604051610fae9190611696565b60405180910390a3505050565b610fc6848484610bcb565b610fd28484848461125f565b611011576040517f08c379a0000000000000000000000000000000000000000000000000000000008152600401611008906121a9565b60405180910390fd5b50505050565b606060405180602001604052806000815250905090565b606060008203611075576040518060400160405280600181526020017f30000000000000000000000000000000000000000000000000000000000000008152509050611189565b600082905060005b600082146110a7578080611090906121c9565b915050600a826110a09190612240565b915061107d565b60008167ffffffffffffffff8111156110c3576110c26119ae565b5b6040519080825280601f01601f1916602001820160405280156110f55781602001600182028036833780820191505090505b5090505b600085146111825760018261110e9190612063565b9150600a8561111d9190612271565b60306111299190612097565b60f81b81838151811061113f5761113e6122a2565b5b60200101907effffffffffffffffffffffffffffffffffffffffffffffffffffffffffffff1916908160001a905350600a8561117b9190612240565b94506110f9565b8093505050505b919050565b60008073ffffffffffffffffffffffffffffffffffffffff166002600084815260200190815260200160002060009054906101000a900473ffffffffffffffffffffffffffffffffffffffff1673ffffffffffffffffffffffffffffffffffffffff1614159050919050565b505050565b505050565b61120e83836113e6565b61121b600084848461125f565b61125a576040517f08c379a0000000000000000000000000000000000000000000000000000000008152600401611251906121a9565b60405180910390fd5b505050565b60006112808473ffffffffffffffffffffffffffffffffffffffff166115bf565b156113d9578373ffffffffffffffffffffffffffffffffffffffff1663150b7a026112a9610a75565b8786866040518563ffffffff1660e01b81526004016112cb9493929190612326565b6020604051808303816000875af192505050801561130757506040513d601f19601f820116820180604052508101906113049190612387565b60015b611389573d8060008114611337576040519150601f19603f3d011682016040523d82523d6000602084013e61133c565b606091505b506000815103611381576040517f08c379a0000000000000000000000000000000000000000000000000000000008152600401611378906121a9565b60405180910390fd5b805181602001fd5b63150b7a0260e01b7bffffffffffffffffffffffffffffffffffffffffffffffffffffffff1916817bffffffffffffffffffffffffffffffffffffffffffffffffffffffff1916149150506113de565b600190505b949350505050565b600073ffffffffffffffffffffffffffffffffffffffff168273ffffffffffffffffffffffffffffffffffffffff1603611455576040517f08c379a000000000000000000000000000000000000000000000000000000000815260040161144c90612400565b60405180910390fd5b61145e8161118e565b1561149e576040517f08c379a00000000000000000000000000000000000000000000000000000000081526004016114959061246c565b60405180910390fd5b6114aa600083836111fa565b6001600360008473ffffffffffffffffffffffffffffffffffffffff1673ffffffffffffffffffffffffffffffffffffffff16815260200190815260200160002060008282546114fa9190612097565b92505081905550816002600083815260200190815260200160002060006101000a81548173ffffffffffffffffffffffffffffffffffffffff021916908373ffffffffffffffffffffffffffffffffffffffff160217905550808273ffffffffffffffffffffffffffffffffffffffff16600073ffffffffffffffffffffffffffffffffffffffff167fddf252ad1be2c89b69c2b068fc378daa952ba7f163c4a11628f55a4df523b3ef60405160405180910390a46115bb600083836111ff565b5050565b6000808273ffffffffffffffffffffffffffffffffffffffff163b119050919050565b6000604051905090565b600080fd5b600080fd5b60007fffffffff0000000000000000000000000000000000000000000000000000000082169050919050565b61162b816115f6565b811461163657600080fd5b50565b60008135905061164881611622565b92915050565b600060208284031215611664576116636115ec565b5b600061167284828501611639565b91505092915050565b60008115159050919050565b6116908161167b565b82525050565b60006020820190506116ab6000830184611687565b92915050565b600081519050919050565b600082825260208201905092915050565b60005b838110156116eb5780820151818401526020810190506116d0565b60008484015250505050565b6000601f19601f8301169050919050565b6000611713826116b1565b61171d81856116bc565b935061172d8185602086016116cd565b611736816116f7565b840191505092915050565b6000602082019050818103600083015261175b8184611708565b905092915050565b6000819050919050565b61177681611763565b811461178157600080fd5b50565b6000813590506117938161176d565b92915050565b6000602082840312156117af576117ae6115ec565b5b60006117bd84828501611784565b91505092915050565b600073ffffffffffffffffffffffffffffffffffffffff82169050919050565b60006117f1826117c6565b9050919050565b611801816117e6565b82525050565b600060208201905061181c60008301846117f8565b92915050565b61182b816117e6565b811461183657600080fd5b50565b60008135905061184881611822565b92915050565b60008060408385031215611865576118646115ec565b5b600061187385828601611839565b925050602061188485828601611784565b9150509250929050565b6000806000606084860312156118a7576118a66115ec565b5b60006118b586828701611839565b93505060206118c686828701611839565b92505060406118d786828701611784565b9150509250925092565b6000602082840312156118f7576118f66115ec565b5b600061190584828501611839565b91505092915050565b61191781611763565b82525050565b6000602082019050611932600083018461190e565b92915050565b6119418161167b565b811461194c57600080fd5b50565b60008135905061195e81611938565b92915050565b6000806040838503121561197b5761197a6115ec565b5b600061198985828601611839565b925050602061199a8582860161194f565b9150509250929050565b600080fd5b600080fd5b7f4e487b7100000000000000000000000000000000000000000000000000000000600052604160045260246000fd5b6119e6826116f7565b810181811067ffffffffffffffff82111715611a0557611a046119ae565b5b80604052505050565b6000611a186115e2565b9050611a2482826119dd565b919050565b600067ffffffffffffffff821115611a4457611a436119ae565b5b611a4d826116f7565b9050602081019050919050565b82818337600083830152505050565b6000611a7c611a7784611a29565b611a0e565b905082815260208101848484011115611a9857611a976119a9565b5b611aa3848285611a5a565b509392505050565b600082601f830112611ac057611abf6119a4565b5b8135611ad0848260208601611a69565b91505092915050565b60008060008060808587031215611af357611af26115ec565b5b6000611b0187828801611839565b9450506020611b1287828801611839565b9350506040611b2387828801611784565b925050606085013567ffffffffffffffff811115611b4457611b436115f1565b5b611b5087828801611aab565b91505092959194509250565b60008060408385031215611b7357611b726115ec565b5b6000611b8185828601611839565b9250506020611b9285828601611839565b9150509250929050565b7f4e487b7100000000000000000000000000000000000000000000000000000000600052602260045260246000fd5b60006002820490506001821680611be357607f821691505b602082108103611bf657611bf5611b9c565b5b50919050565b7f4552433732313a20617070726f76616c20746f2063757272656e74206f776e6560008201527f7200000000000000000000000000000000000000000000000000000000000000602082015250565b6000611c586021836116bc565b9150611c6382611bfc565b604082019050919050565b60006020820190508181036000830152611c8781611c4b565b9050919050565b7f4552433732313a20617070726f76652063616c6c6572206973206e6f7420746f60008201527f6b656e206f776e6572206e6f7220617070726f76656420666f7220616c6c0000602082015250565b6000611cea603e836116bc565b9150611cf582611c8e565b604082019050919050565b60006020820190508181036000830152611d1981611cdd565b9050919050565b7f4552433732313a2063616c6c6572206973206e6f7420746f6b656e206f776e6560008201527f72206e6f7220617070726f766564000000000000000000000000000000000000602082015250565b6000611d7c602e836116bc565b9150611d8782611d20565b604082019050919050565b60006020820190508181036000830152611dab81611d6f565b9050919050565b7f4552433732313a20696e76616c696420746f6b656e2049440000000000000000600082015250565b6000611de86018836116bc565b9150611df382611db2565b602082019050919050565b60006020820190508181036000830152611e1781611ddb565b9050919050565b7f4552433732313a2061646472657373207a65726f206973206e6f74206120766160008201527f6c6964206f776e65720000000000000000000000000000000000000000000000602082015250565b6000611e7a6029836116bc565b9150611e8582611e1e565b604082019050919050565b60006020820190508181036000830152611ea981611e6d565b9050919050565b600081905092915050565b6000611ec6826116b1565b611ed08185611eb0565b9350611ee08185602086016116cd565b80840191505092915050565b6000611ef88285611ebb565b9150611f048284611ebb565b91508190509392505050565b7f4552433732313a207472616e736665722066726f6d20696e636f72726563742060008201527f6f776e6572000000000000000000000000000000000000000000000000000000602082015250565b6000611f6c6025836116bc565b9150611f7782611f10565b604082019050919050565b60006020820190508181036000830152611f9b81611f5f565b9050919050565b7f4552433732313a207472616e7366657220746f20746865207a65726f2061646460008201527f7265737300000000000000000000000000000000000000000000000000000000602082015250565b6000611ffe6024836116bc565b915061200982611fa2565b604082019050919050565b6000602082019050818103600083015261202d81611ff1565b9050919050565b7f4e487b7100000000000000000000000000000000000000000000000000000000600052601160045260246000fd5b600061206e82611763565b915061207983611763565b925082820390508181111561209157612090612034565b5b92915050565b60006120a282611763565b91506120ad83611763565b92508282019050808211156120c5576120c4612034565b5b92915050565b7f4552433732313a20617070726f766520746f2063616c6c657200000000000000600082015250565b60006121016019836116bc565b915061210c826120cb565b602082019050919050565b60006020820190508181036000830152612130816120f4565b9050919050565b7f4552433732313a207472616e7366657220746f206e6f6e20455243373231526560008201527f63656976657220696d706c656d656e7465720000000000000000000000000000602082015250565b60006121936032836116bc565b915061219e82612137565b604082019050919050565b600060208201905081810360008301526121c281612186565b9050919050565b60006121d482611763565b91507fffffffffffffffffffffffffffffffffffffffffffffffffffffffffffffffff820361220657612205612034565b5b600182019050919050565b7f4e487b7100000000000000000000000000000000000000000000000000000000600052601260045260246000fd5b600061224b82611763565b915061225683611763565b92508261226657612265612211565b5b828204905092915050565b600061227c82611763565b915061228783611763565b92508261229757612296612211565b5b828206905092915050565b7f4e487b7100000000000000000000000000000000000000000000000000000000600052603260045260246000fd5b600081519050919050565b600082825260208201905092915050565b60006122f8826122d1565b61230281856122dc565b93506123128185602086016116cd565b61231b816116f7565b840191505092915050565b600060808201905061233b60008301876117f8565b61234860208301866117f8565b612355604083018561190e565b818103606083015261236781846122ed565b905095945050505050565b60008151905061238181611622565b92915050565b60006020828403121561239d5761239c6115ec565b5b60006123ab84828501612372565b91505092915050565b7f4552433732313a206d696e7420746f20746865207a65726f2061646472657373600082015250565b60006123ea6020836116bc565b91506123f5826123b4565b602082019050919050565b60006020820190508181036000830152612419816123dd565b9050919050565b7f4552433732313a20746f6b656e20616c7265616479206d696e74656400000000600082015250565b6000612456601c836116bc565b915061246182612420565b602082019050919050565b6000602082019050818103600083015261248581612449565b905091905056fea2646970667358221220ad962b293f2f504a8c55ce16f40a5da824aeee18921dbed736c1044fdc880f6e64736f6c63430008110033",
  "linkReferences": {},
  "deployedLinkReferences": {}
}